{"contracts/Test.sol":{"Test":{"abi":[{"inputs":[{"internalType":"string","name":"initialMessage","type":"string"}],"stateMutability":"nonpayable","type":"constructor"},{"inputs":[],"name":"getMessage","outputs":[{"internalType":"string","name":"","type":"string"}],"stateMutability":"view","type":"function"},{"inputs":[{"internalType":"string","name":"newMessage","type":"string"}],"name":"setMessage","outputs":[],"stateMutability":"nonpayable","type":"function"}],"evm":{"bytecode":{"linkReferences":{},"object":"608060405234801561001057600080fd5b50604051610b84380380610b84833981810160405281019061003291906101bd565b80600090816100419190610427565b50506104f9565b6000604051905090565b600080fd5b600080fd5b600080fd5b600080fd5b6000601f19601f8301169050919050565b7f4e487b7100000000000000000000000000000000000000000000000000000000600052604160045260246000fd5b6100af82610066565b810181811067ffffffffffffffff821117156100ce576100cd610077565b5b80604052505050565b60006100e1610048565b90506100ed82826100a6565b919050565b600067ffffffffffffffff82111561010d5761010c610077565b5b61011682610066565b9050602081019050919050565b60005b83811015610141578082015181840152602081019050610126565b60008484015250505050565b600061016061015b846100f2565b6100d7565b90508281526020810184848401111561017c5761017b610061565b5b610187848285610123565b509392505050565b600082601f8301126101a4576101a361005c565b5b81516101b484826020860161014d565b91505092915050565b6000602082840312156101d3576101d2610052565b5b600082015167ffffffffffffffff8111156101f1576101f0610057565b5b6101fd8482850161018f565b91505092915050565b600081519050919050565b7f4e487b7100000000000000000000000000000000000000000000000000000000600052602260045260246000fd5b6000600282049050600182168061025857607f821691505b60208210810361026b5761026a610211565b5b50919050565b60008190508160005260206000209050919050565b60006020601f8301049050919050565b600082821b905092915050565b6000600883026102d37fffffffffffffffffffffffffffffffffffffffffffffffffffffffffffffffff82610296565b6102dd8683610296565b95508019841693508086168417925050509392505050565b6000819050919050565b6000819050919050565b600061032461031f61031a846102f5565b6102ff565b6102f5565b9050919050565b6000819050919050565b61033e83610309565b61035261034a8261032b565b8484546102a3565b825550505050565b600090565b61036761035a565b610372818484610335565b505050565b5b818110156103965761038b60008261035f565b600181019050610378565b5050565b601f8211156103db576103ac81610271565b6103b584610286565b810160208510156103c4578190505b6103d86103d085610286565b830182610377565b50505b505050565b600082821c905092915050565b60006103fe600019846008026103e0565b1980831691505092915050565b600061041783836103ed565b9150826002028217905092915050565b61043082610206565b67ffffffffffffffff81111561044957610448610077565b5b6104538254610240565b61045e82828561039a565b600060209050601f831160018114610491576000841561047f578287015190505b610489858261040b565b8655506104f1565b601f19841661049f86610271565b60005b828110156104c7578489015182556001820191506020850194506020810190506104a2565b868310156104e457848901516104e0601f8916826103ed565b8355505b6001600288020188555050505b505050505050565b61067c806105086000396000f3fe608060405234801561001057600080fd5b50600436106100365760003560e01c8063368b87721461003b578063ce6d41de14610057575b600080fd5b61005560048036038101906100509190610274565b610075565b005b61005f610088565b60405161006c919061033c565b60405180910390f35b80600090816100849190610574565b5050565b6060600080546100979061038d565b80601f01602080910402602001604051908101604052809291908181526020018280546100c39061038d565b80156101105780601f106100e557610100808354040283529160200191610110565b820191906000526020600020905b8154815290600101906020018083116100f357829003601f168201915b5050505050905090565b6000604051905090565b600080fd5b600080fd5b600080fd5b600080fd5b6000601f19601f8301169050919050565b7f4e487b7100000000000000000000000000000000000000000000000000000000600052604160045260246000fd5b61018182610138565b810181811067ffffffffffffffff821117156101a05761019f610149565b5b80604052505050565b60006101b361011a565b90506101bf8282610178565b919050565b600067ffffffffffffffff8211156101df576101de610149565b5b6101e882610138565b9050602081019050919050565b82818337600083830152505050565b6000610217610212846101c4565b6101a9565b90508281526020810184848401111561023357610232610133565b5b61023e8482856101f5565b509392505050565b600082601f83011261025b5761025a61012e565b5b813561026b848260208601610204565b91505092915050565b60006020828403121561028a57610289610124565b5b600082013567ffffffffffffffff8111156102a8576102a7610129565b5b6102b484828501610246565b91505092915050565b600081519050919050565b600082825260208201905092915050565b60005b838110156102f75780820151818401526020810190506102dc565b60008484015250505050565b600061030e826102bd565b61031881856102c8565b93506103288185602086016102d9565b61033181610138565b840191505092915050565b600060208201905081810360008301526103568184610303565b905092915050565b7f4e487b7100000000000000000000000000000000000000000000000000000000600052602260045260246000fd5b600060028204905060018216806103a557607f821691505b6020821081036103b8576103b761035e565b5b50919050565b60008190508160005260206000209050919050565b60006020601f8301049050919050565b600082821b905092915050565b6000600883026104207fffffffffffffffffffffffffffffffffffffffffffffffffffffffffffffffff826103e3565b61042a86836103e3565b95508019841693508086168417925050509392505050565b6000819050919050565b6000819050919050565b600061047161046c61046784610442565b61044c565b610442565b9050919050565b6000819050919050565b61048b83610456565b61049f61049782610478565b8484546103f0565b825550505050565b600090565b6104b46104a7565b6104bf818484610482565b505050565b5b818110156104e3576104d86000826104ac565b6001810190506104c5565b5050565b601f821115610528576104f9816103be565b610502846103d3565b81016020851015610511578190505b61052561051d856103d3565b8301826104c4565b50505b505050565b600082821c905092915050565b600061054b6000198460080261052d565b1980831691505092915050565b6000610564838361053a565b9150826002028217905092915050565b61057d826102bd565b67ffffffffffffffff81111561059657610595610149565b5b6105a0825461038d565b6105ab8282856104e7565b600060209050601f8311600181146105de57600084156105cc578287015190505b6105d68582610558565b86555061063e565b601f1984166105ec866103be565b60005b82811015610614578489015182556001820191506020850194506020810190506105ef565b86831015610631578489015161062d601f89168261053a565b8355505b6001600288020188555050505b50505050505056fea264697066735822122037bd6a0ea6cd439b92e162616f9557c1c0636dce6dcd648f5dcd2a340d63002964736f6c634300081c0033","opcodes":"PUSH1 0x80 PUSH1 0x40 MSTORE CALLVALUE DUP1 ISZERO PUSH2 0x10 JUMPI PUSH1 0x0 DUP1 REVERT JUMPDEST POP PUSH1 0x40 MLOAD PUSH2 0xB84 CODESIZE SUB DUP1 PUSH2 0xB84 DUP4 CODECOPY DUP2 DUP2 ADD PUSH1 0x40 MSTORE DUP2 ADD SWAP1 PUSH2 0x32 SWAP2 SWAP1 PUSH2 0x1BD JUMP JUMPDEST DUP1 PUSH1 0x0 SWAP1 DUP2 PUSH2 0x41 SWAP2 SWAP1 PUSH2 0x427 JUMP JUMPDEST POP POP PUSH2 0x4F9 JUMP JUMPDEST PUSH1 0x0 PUSH1 0x40 MLOAD SWAP1 POP SWAP1 JUMP JUMPDEST PUSH1 0x0 DUP1 REVERT JUMPDEST PUSH1 0x0 DUP1 REVERT JUMPDEST PUSH1 0x0 DUP1 REVERT JUMPDEST PUSH1 0x0 DUP1 REVERT JUMPDEST PUSH1 0x0 PUSH1 0x1F NOT PUSH1 0x1F DUP4 ADD AND SWAP1 POP SWAP2 SWAP1 POP JUMP JUMPDEST PUSH32 0x4E487B7100000000000000000000000000000000000000000000000000000000 PUSH1 0x0 MSTORE PUSH1 0x41 PUSH1 0x4 MSTORE PUSH1 0x24 PUSH1 0x0 REVERT JUMPDEST PUSH2 0xAF DUP3 PUSH2 0x66 JUMP JUMPDEST DUP2 ADD DUP2 DUP2 LT PUSH8 0xFFFFFFFFFFFFFFFF DUP3 GT OR ISZERO PUSH2 0xCE JUMPI PUSH2 0xCD PUSH2 0x77 JUMP JUMPDEST JUMPDEST DUP1 PUSH1 0x40 MSTORE POP POP POP JUMP JUMPDEST PUSH1 0x0 PUSH2 0xE1 PUSH2 0x48 JUMP JUMPDEST SWAP1 POP PUSH2 0xED DUP3 DUP3 PUSH2 0xA6 JUMP JUMPDEST SWAP2 SWAP1 POP JUMP JUMPDEST PUSH1 0x0 PUSH8 0xFFFFFFFFFFFFFFFF DUP3 GT ISZERO PUSH2 0x10D JUMPI PUSH2 0x10C PUSH2 0x77 JUMP JUMPDEST JUMPDEST PUSH2 0x116 DUP3 PUSH2 0x66 JUMP JUMPDEST SWAP1 POP PUSH1 0x20 DUP2 ADD SWAP1 POP SWAP2 SWAP1 POP JUMP JUMPDEST PUSH1 0x0 JUMPDEST DUP4 DUP2 LT ISZERO PUSH2 0x141 JUMPI DUP1 DUP3 ADD MLOAD DUP2 DUP5 ADD MSTORE PUSH1 0x20 DUP2 ADD SWAP1 POP PUSH2 0x126 JUMP JUMPDEST PUSH1 0x0 DUP5 DUP5 ADD MSTORE POP POP POP POP JUMP JUMPDEST PUSH1 0x0 PUSH2 0x160 PUSH2 0x15B DUP5 PUSH2 0xF2 JUMP JUMPDEST PUSH2 0xD7 JUMP JUMPDEST SWAP1 POP DUP3 DUP2 MSTORE PUSH1 0x20 DUP2 ADD DUP5 DUP5 DUP5 ADD GT ISZERO PUSH2 0x17C JUMPI PUSH2 0x17B PUSH2 0x61 JUMP JUMPDEST JUMPDEST PUSH2 0x187 DUP5 DUP3 DUP6 PUSH2 0x123 JUMP JUMPDEST POP SWAP4 SWAP3 POP POP POP JUMP JUMPDEST PUSH1 0x0 DUP3 PUSH1 0x1F DUP4 ADD SLT PUSH2 0x1A4 JUMPI PUSH2 0x1A3 PUSH2 0x5C JUMP JUMPDEST JUMPDEST DUP2 MLOAD PUSH2 0x1B4 DUP5 DUP3 PUSH1 0x20 DUP7 ADD PUSH2 0x14D JUMP JUMPDEST SWAP2 POP POP SWAP3 SWAP2 POP POP JUMP JUMPDEST PUSH1 0x0 PUSH1 0x20 DUP3 DUP5 SUB SLT ISZERO PUSH2 0x1D3 JUMPI PUSH2 0x1D2 PUSH2 0x52 JUMP JUMPDEST JUMPDEST PUSH1 0x0 DUP3 ADD MLOAD PUSH8 0xFFFFFFFFFFFFFFFF DUP2 GT ISZERO PUSH2 0x1F1 JUMPI PUSH2 0x1F0 PUSH2 0x57 JUMP JUMPDEST JUMPDEST PUSH2 0x1FD DUP5 DUP3 DUP6 ADD PUSH2 0x18F JUMP JUMPDEST SWAP2 POP POP SWAP3 SWAP2 POP POP JUMP JUMPDEST PUSH1 0x0 DUP2 MLOAD SWAP1 POP SWAP2 SWAP1 POP JUMP JUMPDEST PUSH32 0x4E487B7100000000000000000000000000000000000000000000000000000000 PUSH1 0x0 MSTORE PUSH1 0x22 PUSH1 0x4 MSTORE PUSH1 0x24 PUSH1 0x0 REVERT JUMPDEST PUSH1 0x0 PUSH1 0x2 DUP3 DIV SWAP1 POP PUSH1 0x1 DUP3 AND DUP1 PUSH2 0x258 JUMPI PUSH1 0x7F DUP3 AND SWAP2 POP JUMPDEST PUSH1 0x20 DUP3 LT DUP2 SUB PUSH2 0x26B JUMPI PUSH2 0x26A PUSH2 0x211 JUMP JUMPDEST JUMPDEST POP SWAP2 SWAP1 POP JUMP JUMPDEST PUSH1 0x0 DUP2 SWAP1 POP DUP2 PUSH1 0x0 MSTORE PUSH1 0x20 PUSH1 0x0 KECCAK256 SWAP1 POP SWAP2 SWAP1 POP JUMP JUMPDEST PUSH1 0x0 PUSH1 0x20 PUSH1 0x1F DUP4 ADD DIV SWAP1 POP SWAP2 SWAP1 POP JUMP JUMPDEST PUSH1 0x0 DUP3 DUP3 SHL SWAP1 POP SWAP3 SWAP2 POP POP JUMP JUMPDEST PUSH1 0x0 PUSH1 0x8 DUP4 MUL PUSH2 0x2D3 PUSH32 0xFFFFFFFFFFFFFFFFFFFFFFFFFFFFFFFFFFFFFFFFFFFFFFFFFFFFFFFFFFFFFFFF DUP3 PUSH2 0x296 JUMP JUMPDEST PUSH2 0x2DD DUP7 DUP4 PUSH2 0x296 JUMP JUMPDEST SWAP6 POP DUP1 NOT DUP5 AND SWAP4 POP DUP1 DUP7 AND DUP5 OR SWAP3 POP POP POP SWAP4 SWAP3 POP POP POP JUMP JUMPDEST PUSH1 0x0 DUP2 SWAP1 POP SWAP2 SWAP1 POP JUMP JUMPDEST PUSH1 0x0 DUP2 SWAP1 POP SWAP2 SWAP1 POP JUMP JUMPDEST PUSH1 0x0 PUSH2 0x324 PUSH2 0x31F PUSH2 0x31A DUP5 PUSH2 0x2F5 JUMP JUMPDEST PUSH2 0x2FF JUMP JUMPDEST PUSH2 0x2F5 JUMP JUMPDEST SWAP1 POP SWAP2 SWAP1 POP JUMP JUMPDEST PUSH1 0x0 DUP2 SWAP1 POP SWAP2 SWAP1 POP JUMP JUMPDEST PUSH2 0x33E DUP4 PUSH2 0x309 JUMP JUMPDEST PUSH2 0x352 PUSH2 0x34A DUP3 PUSH2 0x32B JUMP JUMPDEST DUP5 DUP5 SLOAD PUSH2 0x2A3 JUMP JUMPDEST DUP3 SSTORE POP POP POP POP JUMP JUMPDEST PUSH1 0x0 SWAP1 JUMP JUMPDEST PUSH2 0x367 PUSH2 0x35A JUMP JUMPDEST PUSH2 0x372 DUP2 DUP5 DUP5 PUSH2 0x335 JUMP JUMPDEST POP POP POP JUMP JUMPDEST JUMPDEST DUP2 DUP2 LT ISZERO PUSH2 0x396 JUMPI PUSH2 0x38B PUSH1 0x0 DUP3 PUSH2 0x35F JUMP JUMPDEST PUSH1 0x1 DUP2 ADD SWAP1 POP PUSH2 0x378 JUMP JUMPDEST POP POP JUMP JUMPDEST PUSH1 0x1F DUP3 GT ISZERO PUSH2 0x3DB JUMPI PUSH2 0x3AC DUP2 PUSH2 0x271 JUMP JUMPDEST PUSH2 0x3B5 DUP5 PUSH2 0x286 JUMP JUMPDEST DUP2 ADD PUSH1 0x20 DUP6 LT ISZERO PUSH2 0x3C4 JUMPI DUP2 SWAP1 POP JUMPDEST PUSH2 0x3D8 PUSH2 0x3D0 DUP6 PUSH2 0x286 JUMP JUMPDEST DUP4 ADD DUP3 PUSH2 0x377 JUMP JUMPDEST POP POP JUMPDEST POP POP POP JUMP JUMPDEST PUSH1 0x0 DUP3 DUP3 SHR SWAP1 POP SWAP3 SWAP2 POP POP JUMP JUMPDEST PUSH1 0x0 PUSH2 0x3FE PUSH1 0x0 NOT DUP5 PUSH1 0x8 MUL PUSH2 0x3E0 JUMP JUMPDEST NOT DUP1 DUP4 AND SWAP2 POP POP SWAP3 SWAP2 POP POP JUMP JUMPDEST PUSH1 0x0 PUSH2 0x417 DUP4 DUP4 PUSH2 0x3ED JUMP JUMPDEST SWAP2 POP DUP3 PUSH1 0x2 MUL DUP3 OR SWAP1 POP SWAP3 SWAP2 POP POP JUMP JUMPDEST PUSH2 0x430 DUP3 PUSH2 0x206 JUMP JUMPDEST PUSH8 0xFFFFFFFFFFFFFFFF DUP2 GT ISZERO PUSH2 0x449 JUMPI PUSH2 0x448 PUSH2 0x77 JUMP JUMPDEST JUMPDEST PUSH2 0x453 DUP3 SLOAD PUSH2 0x240 JUMP JUMPDEST PUSH2 0x45E DUP3 DUP3 DUP6 PUSH2 0x39A JUMP JUMPDEST PUSH1 0x0 PUSH1 0x20 SWAP1 POP PUSH1 0x1F DUP4 GT PUSH1 0x1 DUP2 EQ PUSH2 0x491 JUMPI PUSH1 0x0 DUP5 ISZERO PUSH2 0x47F JUMPI DUP3 DUP8 ADD MLOAD SWAP1 POP JUMPDEST PUSH2 0x489 DUP6 DUP3 PUSH2 0x40B JUMP JUMPDEST DUP7 SSTORE POP PUSH2 0x4F1 JUMP JUMPDEST PUSH1 0x1F NOT DUP5 AND PUSH2 0x49F DUP7 PUSH2 0x271 JUMP JUMPDEST PUSH1 0x0 JUMPDEST DUP3 DUP2 LT ISZERO PUSH2 0x4C7 JUMPI DUP5 DUP10 ADD MLOAD DUP3 SSTORE PUSH1 0x1 DUP3 ADD SWAP2 POP PUSH1 0x20 DUP6 ADD SWAP5 POP PUSH1 0x20 DUP2 ADD SWAP1 POP PUSH2 0x4A2 JUMP JUMPDEST DUP7 DUP4 LT ISZERO PUSH2 0x4E4 JUMPI DUP5 DUP10 ADD MLOAD PUSH2 0x4E0 PUSH1 0x1F DUP10 AND DUP3 PUSH2 0x3ED JUMP JUMPDEST DUP4 SSTORE POP JUMPDEST PUSH1 0x1 PUSH1 0x2 DUP9 MUL ADD DUP9 SSTORE POP POP POP JUMPDEST POP POP POP POP POP POP JUMP JUMPDEST PUSH2 0x67C DUP1 PUSH2 0x508 PUSH1 0x0 CODECOPY PUSH1 0x0 RETURN INVALID PUSH1 0x80 PUSH1 0x40 MSTORE CALLVALUE DUP1 ISZERO PUSH2 0x10 JUMPI PUSH1 0x0 DUP1 REVERT JUMPDEST POP PUSH1 0x4 CALLDATASIZE LT PUSH2 0x36 JUMPI PUSH1 0x0 CALLDATALOAD PUSH1 0xE0 SHR DUP1 PUSH4 0x368B8772 EQ PUSH2 0x3B JUMPI DUP1 PUSH4 0xCE6D41DE EQ PUSH2 0x57 JUMPI JUMPDEST PUSH1 0x0 DUP1 REVERT JUMPDEST PUSH2 0x55 PUSH1 0x4 DUP1 CALLDATASIZE SUB DUP2 ADD SWAP1 PUSH2 0x50 SWAP2 SWAP1 PUSH2 0x274 JUMP JUMPDEST PUSH2 0x75 JUMP JUMPDEST STOP JUMPDEST PUSH2 0x5F PUSH2 0x88 JUMP JUMPDEST PUSH1 0x40 MLOAD PUSH2 0x6C SWAP2 SWAP1 PUSH2 0x33C JUMP JUMPDEST PUSH1 0x40 MLOAD DUP1 SWAP2 SUB SWAP1 RETURN JUMPDEST DUP1 PUSH1 0x0 SWAP1 DUP2 PUSH2 0x84 SWAP2 SWAP1 PUSH2 0x574 JUMP JUMPDEST POP POP JUMP JUMPDEST PUSH1 0x60 PUSH1 0x0 DUP1 SLOAD PUSH2 0x97 SWAP1 PUSH2 0x38D JUMP JUMPDEST DUP1 PUSH1 0x1F ADD PUSH1 0x20 DUP1 SWAP2 DIV MUL PUSH1 0x20 ADD PUSH1 0x40 MLOAD SWAP1 DUP2 ADD PUSH1 0x40 MSTORE DUP1 SWAP3 SWAP2 SWAP1 DUP2 DUP2 MSTORE PUSH1 0x20 ADD DUP3 DUP1 SLOAD PUSH2 0xC3 SWAP1 PUSH2 0x38D JUMP JUMPDEST DUP1 ISZERO PUSH2 0x110 JUMPI DUP1 PUSH1 0x1F LT PUSH2 0xE5 JUMPI PUSH2 0x100 DUP1 DUP4 SLOAD DIV MUL DUP4 MSTORE SWAP2 PUSH1 0x20 ADD SWAP2 PUSH2 0x110 JUMP JUMPDEST DUP3 ADD SWAP2 SWAP1 PUSH1 0x0 MSTORE PUSH1 0x20 PUSH1 0x0 KECCAK256 SWAP1 JUMPDEST DUP2 SLOAD DUP2 MSTORE SWAP1 PUSH1 0x1 ADD SWAP1 PUSH1 0x20 ADD DUP1 DUP4 GT PUSH2 0xF3 JUMPI DUP3 SWAP1 SUB PUSH1 0x1F AND DUP3 ADD SWAP2 JUMPDEST POP POP POP POP POP SWAP1 POP SWAP1 JUMP JUMPDEST PUSH1 0x0 PUSH1 0x40 MLOAD SWAP1 POP SWAP1 JUMP JUMPDEST PUSH1 0x0 DUP1 REVERT JUMPDEST PUSH1 0x0 DUP1 REVERT JUMPDEST PUSH1 0x0 DUP1 REVERT JUMPDEST PUSH1 0x0 DUP1 REVERT JUMPDEST PUSH1 0x0 PUSH1 0x1F NOT PUSH1 0x1F DUP4 ADD AND SWAP1 POP SWAP2 SWAP1 POP JUMP JUMPDEST PUSH32 0x4E487B7100000000000000000000000000000000000000000000000000000000 PUSH1 0x0 MSTORE PUSH1 0x41 PUSH1 0x4 MSTORE PUSH1 0x24 PUSH1 0x0 REVERT JUMPDEST PUSH2 0x181 DUP3 PUSH2 0x138 JUMP JUMPDEST DUP2 ADD DUP2 DUP2 LT PUSH8 0xFFFFFFFFFFFFFFFF DUP3 GT OR ISZERO PUSH2 0x1A0 JUMPI PUSH2 0x19F PUSH2 0x149 JUMP JUMPDEST JUMPDEST DUP1 PUSH1 0x40 MSTORE POP POP POP JUMP JUMPDEST PUSH1 0x0 PUSH2 0x1B3 PUSH2 0x11A JUMP JUMPDEST SWAP1 POP PUSH2 0x1BF DUP3 DUP3 PUSH2 0x178 JUMP JUMPDEST SWAP2 SWAP1 POP JUMP JUMPDEST PUSH1 0x0 PUSH8 0xFFFFFFFFFFFFFFFF DUP3 GT ISZERO PUSH2 0x1DF JUMPI PUSH2 0x1DE PUSH2 0x149 JUMP JUMPDEST JUMPDEST PUSH2 0x1E8 DUP3 PUSH2 0x138 JUMP JUMPDEST SWAP1 POP PUSH1 0x20 DUP2 ADD SWAP1 POP SWAP2 SWAP1 POP JUMP JUMPDEST DUP3 DUP2 DUP4 CALLDATACOPY PUSH1 0x0 DUP4 DUP4 ADD MSTORE POP POP POP JUMP JUMPDEST PUSH1 0x0 PUSH2 0x217 PUSH2 0x212 DUP5 PUSH2 0x1C4 JUMP JUMPDEST PUSH2 0x1A9 JUMP JUMPDEST SWAP1 POP DUP3 DUP2 MSTORE PUSH1 0x20 DUP2 ADD DUP5 DUP5 DUP5 ADD GT ISZERO PUSH2 0x233 JUMPI PUSH2 0x232 PUSH2 0x133 JUMP JUMPDEST JUMPDEST PUSH2 0x23E DUP5 DUP3 DUP6 PUSH2 0x1F5 JUMP JUMPDEST POP SWAP4 SWAP3 POP POP POP JUMP JUMPDEST PUSH1 0x0 DUP3 PUSH1 0x1F DUP4 ADD SLT PUSH2 0x25B JUMPI PUSH2 0x25A PUSH2 0x12E JUMP JUMPDEST JUMPDEST DUP2 CALLDATALOAD PUSH2 0x26B DUP5 DUP3 PUSH1 0x20 DUP7 ADD PUSH2 0x204 JUMP JUMPDEST SWAP2 POP POP SWAP3 SWAP2 POP POP JUMP JUMPDEST PUSH1 0x0 PUSH1 0x20 DUP3 DUP5 SUB SLT ISZERO PUSH2 0x28A JUMPI PUSH2 0x289 PUSH2 0x124 JUMP JUMPDEST JUMPDEST PUSH1 0x0 DUP3 ADD CALLDATALOAD PUSH8 0xFFFFFFFFFFFFFFFF DUP2 GT ISZERO PUSH2 0x2A8 JUMPI PUSH2 0x2A7 PUSH2 0x129 JUMP JUMPDEST JUMPDEST PUSH2 0x2B4 DUP5 DUP3 DUP6 ADD PUSH2 0x246 JUMP JUMPDEST SWAP2 POP POP SWAP3 SWAP2 POP POP JUMP JUMPDEST PUSH1 0x0 DUP2 MLOAD SWAP1 POP SWAP2 SWAP1 POP JUMP JUMPDEST PUSH1 0x0 DUP3 DUP3 MSTORE PUSH1 0x20 DUP3 ADD SWAP1 POP SWAP3 SWAP2 POP POP JUMP JUMPDEST PUSH1 0x0 JUMPDEST DUP4 DUP2 LT ISZERO PUSH2 0x2F7 JUMPI DUP1 DUP3 ADD MLOAD DUP2 DUP5 ADD MSTORE PUSH1 0x20 DUP2 ADD SWAP1 POP PUSH2 0x2DC JUMP JUMPDEST PUSH1 0x0 DUP5 DUP5 ADD MSTORE POP POP POP POP JUMP JUMPDEST PUSH1 0x0 PUSH2 0x30E DUP3 PUSH2 0x2BD JUMP JUMPDEST PUSH2 0x318 DUP2 DUP6 PUSH2 0x2C8 JUMP JUMPDEST SWAP4 POP PUSH2 0x328 DUP2 DUP6 PUSH1 0x20 DUP7 ADD PUSH2 0x2D9 JUMP JUMPDEST PUSH2 0x331 DUP2 PUSH2 0x138 JUMP JUMPDEST DUP5 ADD SWAP2 POP POP SWAP3 SWAP2 POP POP JUMP JUMPDEST PUSH1 0x0 PUSH1 0x20 DUP3 ADD SWAP1 POP DUP2 DUP2 SUB PUSH1 0x0 DUP4 ADD MSTORE PUSH2 0x356 DUP2 DUP5 PUSH2 0x303 JUMP JUMPDEST SWAP1 POP SWAP3 SWAP2 POP POP JUMP JUMPDEST PUSH32 0x4E487B7100000000000000000000000000000000000000000000000000000000 PUSH1 0x0 MSTORE PUSH1 0x22 PUSH1 0x4 MSTORE PUSH1 0x24 PUSH1 0x0 REVERT JUMPDEST PUSH1 0x0 PUSH1 0x2 DUP3 DIV SWAP1 POP PUSH1 0x1 DUP3 AND DUP1 PUSH2 0x3A5 JUMPI PUSH1 0x7F DUP3 AND SWAP2 POP JUMPDEST PUSH1 0x20 DUP3 LT DUP2 SUB PUSH2 0x3B8 JUMPI PUSH2 0x3B7 PUSH2 0x35E JUMP JUMPDEST JUMPDEST POP SWAP2 SWAP1 POP JUMP JUMPDEST PUSH1 0x0 DUP2 SWAP1 POP DUP2 PUSH1 0x0 MSTORE PUSH1 0x20 PUSH1 0x0 KECCAK256 SWAP1 POP SWAP2 SWAP1 POP JUMP JUMPDEST PUSH1 0x0 PUSH1 0x20 PUSH1 0x1F DUP4 ADD DIV SWAP1 POP SWAP2 SWAP1 POP JUMP JUMPDEST PUSH1 0x0 DUP3 DUP3 SHL SWAP1 POP SWAP3 SWAP2 POP POP JUMP JUMPDEST PUSH1 0x0 PUSH1 0x8 DUP4 MUL PUSH2 0x420 PUSH32 0xFFFFFFFFFFFFFFFFFFFFFFFFFFFFFFFFFFFFFFFFFFFFFFFFFFFFFFFFFFFFFFFF DUP3 PUSH2 0x3E3 JUMP JUMPDEST PUSH2 0x42A DUP7 DUP4 PUSH2 0x3E3 JUMP JUMPDEST SWAP6 POP DUP1 NOT DUP5 AND SWAP4 POP DUP1 DUP7 AND DUP5 OR SWAP3 POP POP POP SWAP4 SWAP3 POP POP POP JUMP JUMPDEST PUSH1 0x0 DUP2 SWAP1 POP SWAP2 SWAP1 POP JUMP JUMPDEST PUSH1 0x0 DUP2 SWAP1 POP SWAP2 SWAP1 POP JUMP JUMPDEST PUSH1 0x0 PUSH2 0x471 PUSH2 0x46C PUSH2 0x467 DUP5 PUSH2 0x442 JUMP JUMPDEST PUSH2 0x44C JUMP JUMPDEST PUSH2 0x442 JUMP JUMPDEST SWAP1 POP SWAP2 SWAP1 POP JUMP JUMPDEST PUSH1 0x0 DUP2 SWAP1 POP SWAP2 SWAP1 POP JUMP JUMPDEST PUSH2 0x48B DUP4 PUSH2 0x456 JUMP JUMPDEST PUSH2 0x49F PUSH2 0x497 DUP3 PUSH2 0x478 JUMP JUMPDEST DUP5 DUP5 SLOAD PUSH2 0x3F0 JUMP JUMPDEST DUP3 SSTORE POP POP POP POP JUMP JUMPDEST PUSH1 0x0 SWAP1 JUMP JUMPDEST PUSH2 0x4B4 PUSH2 0x4A7 JUMP JUMPDEST PUSH2 0x4BF DUP2 DUP5 DUP5 PUSH2 0x482 JUMP JUMPDEST POP POP POP JUMP JUMPDEST JUMPDEST DUP2 DUP2 LT ISZERO PUSH2 0x4E3 JUMPI PUSH2 0x4D8 PUSH1 0x0 DUP3 PUSH2 0x4AC JUMP JUMPDEST PUSH1 0x1 DUP2 ADD SWAP1 POP PUSH2 0x4C5 JUMP JUMPDEST POP POP JUMP JUMPDEST PUSH1 0x1F DUP3 GT ISZERO PUSH2 0x528 JUMPI PUSH2 0x4F9 DUP2 PUSH2 0x3BE JUMP JUMPDEST PUSH2 0x502 DUP5 PUSH2 0x3D3 JUMP JUMPDEST DUP2 ADD PUSH1 0x20 DUP6 LT ISZERO PUSH2 0x511 JUMPI DUP2 SWAP1 POP JUMPDEST PUSH2 0x525 PUSH2 0x51D DUP6 PUSH2 0x3D3 JUMP JUMPDEST DUP4 ADD DUP3 PUSH2 0x4C4 JUMP JUMPDEST POP POP JUMPDEST POP POP POP JUMP JUMPDEST PUSH1 0x0 DUP3 DUP3 SHR SWAP1 POP SWAP3 SWAP2 POP POP JUMP JUMPDEST PUSH1 0x0 PUSH2 0x54B PUSH1 0x0 NOT DUP5 PUSH1 0x8 MUL PUSH2 0x52D JUMP JUMPDEST NOT DUP1 DUP4 AND SWAP2 POP POP SWAP3 SWAP2 POP POP JUMP JUMPDEST PUSH1 0x0 PUSH2 0x564 DUP4 DUP4 PUSH2 0x53A JUMP JUMPDEST SWAP2 POP DUP3 PUSH1 0x2 MUL DUP3 OR SWAP1 POP SWAP3 SWAP2 POP POP JUMP JUMPDEST PUSH2 0x57D DUP3 PUSH2 0x2BD JUMP JUMPDEST PUSH8 0xFFFFFFFFFFFFFFFF DUP2 GT ISZERO PUSH2 0x596 JUMPI PUSH2 0x595 PUSH2 0x149 JUMP JUMPDEST JUMPDEST PUSH2 0x5A0 DUP3 SLOAD PUSH2 0x38D JUMP JUMPDEST PUSH2 0x5AB DUP3 DUP3 DUP6 PUSH2 0x4E7 JUMP JUMPDEST PUSH1 0x0 PUSH1 0x20 SWAP1 POP PUSH1 0x1F DUP4 GT PUSH1 0x1 DUP2 EQ PUSH2 0x5DE JUMPI PUSH1 0x0 DUP5 ISZERO PUSH2 0x5CC JUMPI DUP3 DUP8 ADD MLOAD SWAP1 POP JUMPDEST PUSH2 0x5D6 DUP6 DUP3 PUSH2 0x558 JUMP JUMPDEST DUP7 SSTORE POP PUSH2 0x63E JUMP JUMPDEST PUSH1 0x1F NOT DUP5 AND PUSH2 0x5EC DUP7 PUSH2 0x3BE JUMP JUMPDEST PUSH1 0x0 JUMPDEST DUP3 DUP2 LT ISZERO PUSH2 0x614 JUMPI DUP5 DUP10 ADD MLOAD DUP3 SSTORE PUSH1 0x1 DUP3 ADD SWAP2 POP PUSH1 0x20 DUP6 ADD SWAP5 POP PUSH1 0x20 DUP2 ADD SWAP1 POP PUSH2 0x5EF JUMP JUMPDEST DUP7 DUP4 LT ISZERO PUSH2 0x631 JUMPI DUP5 DUP10 ADD MLOAD PUSH2 0x62D PUSH1 0x1F DUP10 AND DUP3 PUSH2 0x53A JUMP JUMPDEST DUP4 SSTORE POP JUMPDEST PUSH1 0x1 PUSH1 0x2 DUP9 MUL ADD DUP9 SSTORE POP POP POP JUMPDEST POP POP POP POP POP POP JUMP INVALID LOG2 PUSH5 0x6970667358 0x22 SLT KECCAK256 CALLDATACOPY 0xBD PUSH11 0xEA6CD439B92E162616F95 JUMPI 0xC1 0xC0 PUSH4 0x6DCE6DCD PUSH5 0x8F5DCD2A34 0xD PUSH4 0x296473 PUSH16 0x6C634300081C00330000000000000000 "},"methodIdentifiers":{"getMessage()":"ce6d41de","setMessage(string)":"368b8772"}}}}}