{
  "_format": "hh-sol-artifact-1",
  "contractName": "TaskBounty",
  "sourceName": "contracts/TaskBounty.sol",
  "abi": [
    {
      "inputs": [
        {
          "internalType": "string",
          "name": "_description",
          "type": "string"
        },
        {
          "internalType": "uint256",
          "name": "_deadline",
          "type": "uint256"
        },
        {
          "internalType": "uint256",
          "name": "_minApprovals",
          "type": "uint256"
        }
      ],
      "stateMutability": "payable",
      "type": "constructor"
    },
    {
      "anonymous": false,
      "inputs": [
        {
          "indexed": true,
          "internalType": "address",
          "name": "disputeInitiator",
          "type": "address"
        },
        {
          "indexed": true,
          "internalType": "uint256",
          "name": "proposalId",
          "type": "uint256"
        }
      ],
      "name": "DisputeRaised",
      "type": "event"
    },
    {
      "anonymous": false,
      "inputs": [
        {
          "indexed": true,
          "internalType": "uint256",
          "name": "proposalId",
          "type": "uint256"
        }
      ],
      "name": "ProposalApproved",
      "type": "event"
    },
    {
      "anonymous": false,
      "inputs": [
        {
          "indexed": true,
          "internalType": "address",
          "name": "hunter",
          "type": "address"
        },
        {
          "indexed": true,
          "internalType": "uint256",
          "name": "proposalId",
          "type": "uint256"
        }
      ],
      "name": "ProposalSubmitted",
      "type": "event"
    },
    {
      "anonymous": false,
      "inputs": [
        {
          "indexed": true,
          "internalType": "address",
          "name": "validator",
          "type": "address"
        }
      ],
      "name": "ValidatorAdded",
      "type": "event"
    },
    {
      "inputs": [
        {
          "internalType": "address",
          "name": "_validator",
          "type": "address"
        }
      ],
      "name": "addValidator",
      "outputs": [],
      "stateMutability": "nonpayable",
      "type": "function"
    },
    {
      "inputs": [
        {
          "internalType": "uint256",
          "name": "_proposalId",
          "type": "uint256"
        }
      ],
      "name": "approveProposal",
      "outputs": [],
      "stateMutability": "nonpayable",
      "type": "function"
    },
    {
      "inputs": [],
      "name": "currentTask",
      "outputs": [
        {
          "internalType": "string",
          "name": "description",
          "type": "string"
        },
        {
          "internalType": "uint256",
          "name": "reward",
          "type": "uint256"
        },
        {
          "internalType": "uint256",
          "name": "deadline",
          "type": "uint256"
        },
        {
          "internalType": "uint256",
          "name": "createdAt",
          "type": "uint256"
        },
        {
          "internalType": "bool",
          "name": "isCompleted",
          "type": "bool"
        },
        {
          "internalType": "uint256",
          "name": "minApprovals",
          "type": "uint256"
        }
      ],
      "stateMutability": "view",
      "type": "function"
    },
    {
      "inputs": [],
      "name": "getProposalCount",
      "outputs": [
        {
          "internalType": "uint256",
          "name": "",
          "type": "uint256"
        }
      ],
      "stateMutability": "view",
      "type": "function"
    },
    {
      "inputs": [],
      "name": "getTimeLeft",
      "outputs": [
        {
          "internalType": "uint256",
          "name": "",
          "type": "uint256"
        }
      ],
      "stateMutability": "view",
      "type": "function"
    },
    {
      "inputs": [],
      "name": "owner",
      "outputs": [
        {
          "internalType": "address",
          "name": "",
          "type": "address"
        }
      ],
      "stateMutability": "view",
      "type": "function"
    },
    {
      "inputs": [
        {
          "internalType": "uint256",
          "name": "",
          "type": "uint256"
        },
        {
          "internalType": "address",
          "name": "",
          "type": "address"
        }
      ],
      "name": "proposalApprovers",
      "outputs": [
        {
          "internalType": "bool",
          "name": "",
          "type": "bool"
        }
      ],
      "stateMutability": "view",
      "type": "function"
    },
    {
      "inputs": [
        {
          "internalType": "uint256",
          "name": "",
          "type": "uint256"
        }
      ],
      "name": "proposals",
      "outputs": [
        {
          "internalType": "address",
          "name": "hunter",
          "type": "address"
        },
        {
          "internalType": "string",
          "name": "proofOfWork",
          "type": "string"
        },
        {
          "internalType": "uint256",
          "name": "timestamp",
          "type": "uint256"
        },
        {
          "internalType": "uint256",
          "name": "approvalCount",
          "type": "uint256"
        },
        {
          "internalType": "bool",
          "name": "isApproved",
          "type": "bool"
        }
      ],
      "stateMutability": "view",
      "type": "function"
    },
    {
      "inputs": [
        {
          "internalType": "uint256",
          "name": "_proposalId",
          "type": "uint256"
        }
      ],
      "name": "raiseDispute",
      "outputs": [],
      "stateMutability": "nonpayable",
      "type": "function"
    },
    {
      "inputs": [
        {
          "internalType": "string",
          "name": "_proofOfWork",
          "type": "string"
        }
      ],
      "name": "submitProposal",
      "outputs": [],
      "stateMutability": "nonpayable",
      "type": "function"
    },
    {
      "inputs": [],
      "name": "validatorCount",
      "outputs": [
        {
          "internalType": "uint256",
          "name": "",
          "type": "uint256"
        }
      ],
      "stateMutability": "view",
      "type": "function"
    },
    {
      "inputs": [
        {
          "internalType": "address",
          "name": "",
          "type": "address"
        }
      ],
      "name": "validators",
      "outputs": [
        {
          "internalType": "bool",
          "name": "",
          "type": "bool"
        }
      ],
      "stateMutability": "view",
      "type": "function"
    }
  ],
  "bytecode": "0x60a06040526040516120b23803806120b283398181016040528101906100259190610309565b3373ffffffffffffffffffffffffffffffffffffffff1660808173ffffffffffffffffffffffffffffffffffffffff16815250506040518060c00160405280848152602001348152602001834261007c91906103a7565b8152602001428152602001600015158152602001828152506000808201518160000190816100aa91906105f2565b5060208201518160010155604082015181600201556060820151816003015560808201518160040160006101000a81548160ff02191690831515021790555060a082015181600501559050506001600660003373ffffffffffffffffffffffffffffffffffffffff1673ffffffffffffffffffffffffffffffffffffffff16815260200190815260200160002060006101000a81548160ff02191690831515021790555060016009819055505050506106c4565b6000604051905090565b600080fd5b600080fd5b600080fd5b600080fd5b6000601f19601f8301169050919050565b7f4e487b7100000000000000000000000000000000000000000000000000000000600052604160045260246000fd5b6101c58261017c565b810181811067ffffffffffffffff821117156101e4576101e361018d565b5b80604052505050565b60006101f761015e565b905061020382826101bc565b919050565b600067ffffffffffffffff8211156102235761022261018d565b5b61022c8261017c565b9050602081019050919050565b60005b8381101561025757808201518184015260208101905061023c565b60008484015250505050565b600061027661027184610208565b6101ed565b90508281526020810184848401111561029257610291610177565b5b61029d848285610239565b509392505050565b600082601f8301126102ba576102b9610172565b5b81516102ca848260208601610263565b91505092915050565b6000819050919050565b6102e6816102d3565b81146102f157600080fd5b50565b600081519050610303816102dd565b92915050565b60008060006060848603121561032257610321610168565b5b600084015167ffffffffffffffff8111156103405761033f61016d565b5b61034c868287016102a5565b935050602061035d868287016102f4565b925050604061036e868287016102f4565b9150509250925092565b7f4e487b7100000000000000000000000000000000000000000000000000000000600052601160045260246000fd5b60006103b2826102d3565b91506103bd836102d3565b92508282019050808211156103d5576103d4610378565b5b92915050565b600081519050919050565b7f4e487b7100000000000000000000000000000000000000000000000000000000600052602260045260246000fd5b6000600282049050600182168061042d57607f821691505b6020821081036104405761043f6103e6565b5b50919050565b60008190508160005260206000209050919050565b60006020601f8301049050919050565b600082821b905092915050565b6000600883026104a87fffffffffffffffffffffffffffffffffffffffffffffffffffffffffffffffff8261046b565b6104b2868361046b565b95508019841693508086168417925050509392505050565b6000819050919050565b60006104ef6104ea6104e5846102d3565b6104ca565b6102d3565b9050919050565b6000819050919050565b610509836104d4565b61051d610515826104f6565b848454610478565b825550505050565b600090565b610532610525565b61053d818484610500565b505050565b5b818110156105615761055660008261052a565b600181019050610543565b5050565b601f8211156105a65761057781610446565b6105808461045b565b8101602085101561058f578190505b6105a361059b8561045b565b830182610542565b50505b505050565b600082821c905092915050565b60006105c9600019846008026105ab565b1980831691505092915050565b60006105e283836105b8565b9150826002028217905092915050565b6105fb826103db565b67ffffffffffffffff8111156106145761061361018d565b5b61061e8254610415565b610629828285610565565b600060209050601f83116001811461065c576000841561064a578287015190505b61065485826105d6565b8655506106bc565b601f19841661066a86610446565b60005b828110156106925784890151825560018201915060208501945060208101905061066d565b868310156106af57848901516106ab601f8916826105b8565b8355505b6001600288020188555050505b505050505050565b6080516119cc6106e66000396000818161054c015261071d01526119cc6000f3fe608060405234801561001057600080fd5b50600436106100b45760003560e01c8063a5c1674e11610071578063a5c1674e1461017d578063c08cc02d14610199578063c7e284b8146101b7578063f388b046146101d5578063fa52c7d8146101f8578063fef5c66414610228576100b4565b8063013cf08b146100b95780630f43a677146100ed578063373d6d5e1461010b5780634d238c8e146101275780638da5cb5b1461014357806398951b5614610161575b600080fd5b6100d360048036038101906100ce9190610de0565b610258565b6040516100e4959493929190610f08565b60405180910390f35b6100f5610353565b6040516101029190610f62565b60405180910390f35b610125600480360381019061012091906110b2565b610359565b005b610141600480360381019061013c9190611127565b61054a565b005b61014b61071b565b6040516101589190611154565b60405180910390f35b61017b60048036038101906101769190610de0565b61073f565b005b61019760048036038101906101929190610de0565b610ac1565b005b6101a1610c4e565b6040516101ae9190610f62565b60405180910390f35b6101bf610c5b565b6040516101cc9190610f62565b60405180910390f35b6101dd610c88565b6040516101ef9695949392919061116f565b60405180910390f35b610212600480360381019061020d9190611127565b610d47565b60405161021f91906111d7565b60405180910390f35b610242600480360381019061023d91906111f2565b610d67565b60405161024f91906111d7565b60405180910390f35b6008818154811061026857600080fd5b90600052602060002090600502016000915090508060000160009054906101000a900473ffffffffffffffffffffffffffffffffffffffff16908060010180546102b190611261565b80601f01602080910402602001604051908101604052809291908181526020018280546102dd90611261565b801561032a5780601f106102ff5761010080835404028352916020019161032a565b820191906000526020600020905b81548152906001019060200180831161030d57829003601f168201915b5050505050908060020154908060030154908060040160009054906101000a900460ff16905085565b60095481565b60006002015442106103a0576040517f08c379a0000000000000000000000000000000000000000000000000000000008152600401610397906112de565b60405180910390fd5b600060040160009054906101000a900460ff16156103f3576040517f08c379a00000000000000000000000000000000000000000000000000000000081526004016103ea9061134a565b60405180910390fd5b60086040518060a001604052803373ffffffffffffffffffffffffffffffffffffffff1681526020018381526020014281526020016000815260200160001515815250908060018154018082558091505060019003906000526020600020906005020160009091909190915060008201518160000160006101000a81548173ffffffffffffffffffffffffffffffffffffffff021916908373ffffffffffffffffffffffffffffffffffffffff16021790555060208201518160010190816104bb9190611516565b50604082015181600201556060820151816003015560808201518160040160006101000a81548160ff021916908315150217905550505060016008805490506105049190611617565b3373ffffffffffffffffffffffffffffffffffffffff167f9502d7618553b38b99edbe5d1547756cc9ab18db5ddd0674b051490ca4e2fb4c60405160405180910390a350565b7f000000000000000000000000000000000000000000000000000000000000000073ffffffffffffffffffffffffffffffffffffffff163373ffffffffffffffffffffffffffffffffffffffff16146105d8576040517f08c379a00000000000000000000000000000000000000000000000000000000081526004016105cf906116bd565b60405180910390fd5b600660008273ffffffffffffffffffffffffffffffffffffffff1673ffffffffffffffffffffffffffffffffffffffff16815260200190815260200160002060009054906101000a900460ff1615610665576040517f08c379a000000000000000000000000000000000000000000000000000000000815260040161065c90611729565b60405180910390fd5b6001600660008373ffffffffffffffffffffffffffffffffffffffff1673ffffffffffffffffffffffffffffffffffffffff16815260200190815260200160002060006101000a81548160ff021916908315150217905550600960008154809291906106d090611749565b91905055508073ffffffffffffffffffffffffffffffffffffffff167fe366c1c0452ed8eec96861e9e54141ebff23c9ec89fe27b996b45f5ec388498760405160405180910390a250565b7f000000000000000000000000000000000000000000000000000000000000000081565b600660003373ffffffffffffffffffffffffffffffffffffffff1673ffffffffffffffffffffffffffffffffffffffff16815260200190815260200160002060009054906101000a900460ff166107cb576040517f08c379a00000000000000000000000000000000000000000000000000000000081526004016107c290611803565b60405180910390fd5b6008805490508110610812576040517f08c379a00000000000000000000000000000000000000000000000000000000081526004016108099061186f565b60405180910390fd5b6007600082815260200190815260200160002060003373ffffffffffffffffffffffffffffffffffffffff1673ffffffffffffffffffffffffffffffffffffffff16815260200190815260200160002060009054906101000a900460ff16156108b0576040517f08c379a00000000000000000000000000000000000000000000000000000000081526004016108a7906118db565b60405180910390fd5b60016007600083815260200190815260200160002060003373ffffffffffffffffffffffffffffffffffffffff1673ffffffffffffffffffffffffffffffffffffffff16815260200190815260200160002060006101000a81548160ff0219169083151502179055506008818154811061092d5761092c6118fb565b5b9060005260206000209060050201600301600081548092919061094f90611749565b91905055506000600501546008828154811061096e5761096d6118fb565b5b9060005260206000209060050201600301541015801561099e5750600060040160009054906101000a900460ff16155b15610abe576001600060040160006101000a81548160ff0219169083151502179055506001600882815481106109d7576109d66118fb565b5b906000526020600020906005020160040160006101000a81548160ff02191690831515021790555060088181548110610a1357610a126118fb565b5b906000526020600020906005020160000160009054906101000a900473ffffffffffffffffffffffffffffffffffffffff1673ffffffffffffffffffffffffffffffffffffffff166108fc6000600101549081150290604051600060405180830381858888f19350505050158015610a8f573d6000803e3d6000fd5b50807f28ec9e38ba73636ceb2f6c1574136f83bd46284a3c74734b711bf45e12f8d92960405160405180910390a25b50565b600660003373ffffffffffffffffffffffffffffffffffffffff1673ffffffffffffffffffffffffffffffffffffffff16815260200190815260200160002060009054906101000a900460ff16610b4d576040517f08c379a0000000000000000000000000000000000000000000000000000000008152600401610b4490611803565b60405180910390fd5b6008805490508110610b94576040517f08c379a0000000000000000000000000000000000000000000000000000000008152600401610b8b9061186f565b60405180910390fd5b60088181548110610ba857610ba76118fb565b5b906000526020600020906005020160040160009054906101000a900460ff1615610c07576040517f08c379a0000000000000000000000000000000000000000000000000000000008152600401610bfe90611976565b60405180910390fd5b803373ffffffffffffffffffffffffffffffffffffffff167fbd189a57edd98c9c61d4dd3cf0d28749a2cdda08f9bc354f8864830e0452082460405160405180910390a350565b6000600880549050905090565b600080600201544210610c715760009050610c85565b42600060020154610c829190611617565b90505b90565b6000806000018054610c9990611261565b80601f0160208091040260200160405190810160405280929190818152602001828054610cc590611261565b8015610d125780601f10610ce757610100808354040283529160200191610d12565b820191906000526020600020905b815481529060010190602001808311610cf557829003601f168201915b5050505050908060010154908060020154908060030154908060040160009054906101000a900460ff16908060050154905086565b60066020528060005260406000206000915054906101000a900460ff1681565b60076020528160005260406000206020528060005260406000206000915091509054906101000a900460ff1681565b6000604051905090565b600080fd5b600080fd5b6000819050919050565b610dbd81610daa565b8114610dc857600080fd5b50565b600081359050610dda81610db4565b92915050565b600060208284031215610df657610df5610da0565b5b6000610e0484828501610dcb565b91505092915050565b600073ffffffffffffffffffffffffffffffffffffffff82169050919050565b6000610e3882610e0d565b9050919050565b610e4881610e2d565b82525050565b600081519050919050565b600082825260208201905092915050565b60005b83811015610e88578082015181840152602081019050610e6d565b60008484015250505050565b6000601f19601f8301169050919050565b6000610eb082610e4e565b610eba8185610e59565b9350610eca818560208601610e6a565b610ed381610e94565b840191505092915050565b610ee781610daa565b82525050565b60008115159050919050565b610f0281610eed565b82525050565b600060a082019050610f1d6000830188610e3f565b8181036020830152610f2f8187610ea5565b9050610f3e6040830186610ede565b610f4b6060830185610ede565b610f586080830184610ef9565b9695505050505050565b6000602082019050610f776000830184610ede565b92915050565b600080fd5b600080fd5b7f4e487b7100000000000000000000000000000000000000000000000000000000600052604160045260246000fd5b610fbf82610e94565b810181811067ffffffffffffffff82111715610fde57610fdd610f87565b5b80604052505050565b6000610ff1610d96565b9050610ffd8282610fb6565b919050565b600067ffffffffffffffff82111561101d5761101c610f87565b5b61102682610e94565b9050602081019050919050565b82818337600083830152505050565b600061105561105084611002565b610fe7565b90508281526020810184848401111561107157611070610f82565b5b61107c848285611033565b509392505050565b600082601f83011261109957611098610f7d565b5b81356110a9848260208601611042565b91505092915050565b6000602082840312156110c8576110c7610da0565b5b600082013567ffffffffffffffff8111156110e6576110e5610da5565b5b6110f284828501611084565b91505092915050565b61110481610e2d565b811461110f57600080fd5b50565b600081359050611121816110fb565b92915050565b60006020828403121561113d5761113c610da0565b5b600061114b84828501611112565b91505092915050565b60006020820190506111696000830184610e3f565b92915050565b600060c08201905081810360008301526111898189610ea5565b90506111986020830188610ede565b6111a56040830187610ede565b6111b26060830186610ede565b6111bf6080830185610ef9565b6111cc60a0830184610ede565b979650505050505050565b60006020820190506111ec6000830184610ef9565b92915050565b6000806040838503121561120957611208610da0565b5b600061121785828601610dcb565b925050602061122885828601611112565b9150509250929050565b7f4e487b7100000000000000000000000000000000000000000000000000000000600052602260045260246000fd5b6000600282049050600182168061127957607f821691505b60208210810361128c5761128b611232565b5b50919050565b7f5461736b20646561646c696e6520706173736564000000000000000000000000600082015250565b60006112c8601483610e59565b91506112d382611292565b602082019050919050565b600060208201905081810360008301526112f7816112bb565b9050919050565b7f5461736b20616c726561647920636f6d706c6574656400000000000000000000600082015250565b6000611334601683610e59565b915061133f826112fe565b602082019050919050565b6000602082019050818103600083015261136381611327565b9050919050565b60008190508160005260206000209050919050565b60006020601f8301049050919050565b600082821b905092915050565b6000600883026113cc7fffffffffffffffffffffffffffffffffffffffffffffffffffffffffffffffff8261138f565b6113d6868361138f565b95508019841693508086168417925050509392505050565b6000819050919050565b600061141361140e61140984610daa565b6113ee565b610daa565b9050919050565b6000819050919050565b61142d836113f8565b6114416114398261141a565b84845461139c565b825550505050565b600090565b611456611449565b611461818484611424565b505050565b5b818110156114855761147a60008261144e565b600181019050611467565b5050565b601f8211156114ca5761149b8161136a565b6114a48461137f565b810160208510156114b3578190505b6114c76114bf8561137f565b830182611466565b50505b505050565b600082821c905092915050565b60006114ed600019846008026114cf565b1980831691505092915050565b600061150683836114dc565b9150826002028217905092915050565b61151f82610e4e565b67ffffffffffffffff81111561153857611537610f87565b5b6115428254611261565b61154d828285611489565b600060209050601f831160018114611580576000841561156e578287015190505b61157885826114fa565b8655506115e0565b601f19841661158e8661136a565b60005b828110156115b657848901518255600182019150602085019450602081019050611591565b868310156115d357848901516115cf601f8916826114dc565b8355505b6001600288020188555050505b505050505050565b7f4e487b7100000000000000000000000000000000000000000000000000000000600052601160045260246000fd5b600061162282610daa565b915061162d83610daa565b9250828203905081811115611645576116446115e8565b5b92915050565b7f4f6e6c79206f776e65722063616e2063616c6c20746869732066756e6374696f60008201527f6e00000000000000000000000000000000000000000000000000000000000000602082015250565b60006116a7602183610e59565b91506116b28261164b565b604082019050919050565b600060208201905081810360008301526116d68161169a565b9050919050565b7f416c726561647920612076616c696461746f7200000000000000000000000000600082015250565b6000611713601383610e59565b915061171e826116dd565b602082019050919050565b6000602082019050818103600083015261174281611706565b9050919050565b600061175482610daa565b91507fffffffffffffffffffffffffffffffffffffffffffffffffffffffffffffffff8203611786576117856115e8565b5b600182019050919050565b7f4f6e6c792076616c696461746f72732063616e2063616c6c207468697320667560008201527f6e6374696f6e0000000000000000000000000000000000000000000000000000602082015250565b60006117ed602683610e59565b91506117f882611791565b604082019050919050565b6000602082019050818103600083015261181c816117e0565b9050919050565b7f496e76616c69642070726f706f73616c00000000000000000000000000000000600082015250565b6000611859601083610e59565b915061186482611823565b602082019050919050565b600060208201905081810360008301526118888161184c565b9050919050565b7f416c726561647920617070726f76656400000000000000000000000000000000600082015250565b60006118c5601083610e59565b91506118d08261188f565b602082019050919050565b600060208201905081810360008301526118f4816118b8565b9050919050565b7f4e487b7100000000000000000000000000000000000000000000000000000000600052603260045260246000fd5b7f50726f706f73616c20616c726561647920617070726f76656400000000000000600082015250565b6000611960601983610e59565b915061196b8261192a565b602082019050919050565b6000602082019050818103600083015261198f81611953565b905091905056fea264697066735822122036651051aa22e80a6996e69b5859e6821be8b7e94740eeca0c8f95453ea4081064736f6c634300081c0033",
  "linkReferences": {},
  "deployedLinkReferences": {}
}